{
  "_format": "hh-sol-artifact-1",
  "contractName": "TodoContract",
  "sourceName": "contracts/TodoContract.sol",
  "abi": [
    {
      "inputs": [
        {
          "internalType": "address",
          "name": "_owner",
          "type": "address"
        }
      ],
      "stateMutability": "nonpayable",
      "type": "constructor"
    },
    {
      "anonymous": false,
      "inputs": [
        {
          "indexed": false,
          "internalType": "string",
          "name": "name",
          "type": "string"
        }
      ],
      "name": "completedTodo",
      "type": "event"
    },
    {
      "inputs": [
        {
          "internalType": "string",
          "name": "task",
          "type": "string"
        }
      ],
      "name": "addTodo",
      "outputs": [],
      "stateMutability": "nonpayable",
      "type": "function"
    },
    {
      "inputs": [
        {
          "internalType": "uint256",
          "name": "_id",
          "type": "uint256"
        }
      ],
      "name": "completeTodo",
      "outputs": [],
      "stateMutability": "nonpayable",
      "type": "function"
    },
    {
      "inputs": [],
      "name": "getAllTodos",
      "outputs": [
        {
          "components": [
            {
              "internalType": "uint256",
              "name": "id",
              "type": "uint256"
            },
            {
              "internalType": "string",
              "name": "task",
              "type": "string"
            },
            {
              "internalType": "uint256",
              "name": "timestamp",
              "type": "uint256"
            },
            {
              "internalType": "address",
              "name": "from",
              "type": "address"
            },
            {
              "internalType": "bool",
              "name": "isCompleted",
              "type": "bool"
            }
          ],
          "internalType": "struct TodoContract.Todo[]",
          "name": "",
          "type": "tuple[]"
        }
      ],
      "stateMutability": "view",
      "type": "function"
    },
    {
      "inputs": [
        {
          "internalType": "address",
          "name": "userAddress",
          "type": "address"
        }
      ],
      "name": "getAnyOneTodo",
      "outputs": [
        {
          "components": [
            {
              "internalType": "uint256",
              "name": "id",
              "type": "uint256"
            },
            {
              "internalType": "string",
              "name": "task",
              "type": "string"
            },
            {
              "internalType": "uint256",
              "name": "timestamp",
              "type": "uint256"
            },
            {
              "internalType": "address",
              "name": "from",
              "type": "address"
            },
            {
              "internalType": "bool",
              "name": "isCompleted",
              "type": "bool"
            }
          ],
          "internalType": "struct TodoContract.Todo[]",
          "name": "",
          "type": "tuple[]"
        }
      ],
      "stateMutability": "view",
      "type": "function"
    },
    {
      "inputs": [
        {
          "internalType": "address",
          "name": "userAddress",
          "type": "address"
        }
      ],
      "name": "getName",
      "outputs": [
        {
          "internalType": "string",
          "name": "",
          "type": "string"
        }
      ],
      "stateMutability": "view",
      "type": "function"
    },
    {
      "inputs": [],
      "name": "owner",
      "outputs": [
        {
          "internalType": "address",
          "name": "",
          "type": "address"
        }
      ],
      "stateMutability": "view",
      "type": "function"
    },
    {
      "inputs": [
        {
          "internalType": "string",
          "name": "name",
          "type": "string"
        }
      ],
      "name": "registerUser",
      "outputs": [],
      "stateMutability": "nonpayable",
      "type": "function"
    }
  ],
  "bytecode": "0x60806040523480156200001157600080fd5b50604051620018da380380620018da8339818101604052810190620000379190620000e8565b806000806101000a81548173ffffffffffffffffffffffffffffffffffffffff021916908373ffffffffffffffffffffffffffffffffffffffff160217905550506200011a565b600080fd5b600073ffffffffffffffffffffffffffffffffffffffff82169050919050565b6000620000b08262000083565b9050919050565b620000c281620000a3565b8114620000ce57600080fd5b50565b600081519050620000e281620000b7565b92915050565b6000602082840312156200010157620001006200007e565b5b60006200011184828501620000d1565b91505092915050565b6117b0806200012a6000396000f3fe608060405234801561001057600080fd5b506004361061007d5760003560e01c80637e1f51651161005b5780637e1f5165146100ea5780638da5cb5b1461011a57806395ffebf514610138578063ce2bd5d5146101545761007d565b806320fe2144146100825780635fd4b08a1461009e578063704f1b94146100ce575b600080fd5b61009c60048036038101906100979190610cb9565b610172565b005b6100b860048036038101906100b39190610d44565b6103c4565b6040516100c59190610e01565b60405180910390f35b6100e860048036038101906100e39190610e88565b610523565b005b61010460048036038101906100ff9190610d44565b610600565b6040516101119190611090565b60405180910390f35b610122610843565b60405161012f91906110c1565b60405180910390f35b610152600480360381019061014d9190610e88565b610867565b005b61015c610ac6565b6040516101699190611090565b60405180910390f35b6000600160003373ffffffffffffffffffffffffffffffffffffffff1673ffffffffffffffffffffffffffffffffffffffff16815260200190815260200160002080546101be9061110b565b905003610200576040517f08c379a00000000000000000000000000000000000000000000000000000000081526004016101f790611188565b60405180910390fd5b6000600260003373ffffffffffffffffffffffffffffffffffffffff1673ffffffffffffffffffffffffffffffffffffffff16815260200190815260200160002080549050905060005b818110156103bf5782600260003373ffffffffffffffffffffffffffffffffffffffff1673ffffffffffffffffffffffffffffffffffffffff16815260200190815260200160002082815481106102a4576102a36111a8565b5b906000526020600020906004020160000154036103ac577f8f1b774972f33252ec2196c9303e9ba8919322cd477567d517cd6d2f536a1102600160003373ffffffffffffffffffffffffffffffffffffffff1673ffffffffffffffffffffffffffffffffffffffff1681526020019081526020016000206040516103289190611270565b60405180910390a16001600260003373ffffffffffffffffffffffffffffffffffffffff1673ffffffffffffffffffffffffffffffffffffffff1681526020019081526020016000208281548110610383576103826111a8565b5b906000526020600020906004020160030160146101000a81548160ff0219169083151502179055505b80806103b7906112c1565b91505061024a565b505050565b606060008054906101000a900473ffffffffffffffffffffffffffffffffffffffff1673ffffffffffffffffffffffffffffffffffffffff163373ffffffffffffffffffffffffffffffffffffffff1614610454576040517f08c379a000000000000000000000000000000000000000000000000000000000815260040161044b90611355565b60405180910390fd5b600160008373ffffffffffffffffffffffffffffffffffffffff1673ffffffffffffffffffffffffffffffffffffffff168152602001908152602001600020805461049e9061110b565b80601f01602080910402602001604051908101604052809291908181526020018280546104ca9061110b565b80156105175780601f106104ec57610100808354040283529160200191610517565b820191906000526020600020905b8154815290600101906020018083116104fa57829003601f168201915b50505050509050919050565b81818080601f016020809104026020016040519081016040528093929190818152602001838380828437600081840152601f19601f8201169050808301925050505050505060058151116105ac576040517f08c379a00000000000000000000000000000000000000000000000000000000081526004016105a3906113e7565b60405180910390fd5b8282600160003373ffffffffffffffffffffffffffffffffffffffff1673ffffffffffffffffffffffffffffffffffffffff16815260200190815260200160002091826105fa9291906115d8565b50505050565b606060008054906101000a900473ffffffffffffffffffffffffffffffffffffffff1673ffffffffffffffffffffffffffffffffffffffff163373ffffffffffffffffffffffffffffffffffffffff1614610690576040517f08c379a000000000000000000000000000000000000000000000000000000000815260040161068790611355565b60405180910390fd5b600260008373ffffffffffffffffffffffffffffffffffffffff1673ffffffffffffffffffffffffffffffffffffffff168152602001908152602001600020805480602002602001604051908101604052809291908181526020016000905b8282101561083857838290600052602060002090600402016040518060a00160405290816000820154815260200160018201805461072c9061110b565b80601f01602080910402602001604051908101604052809291908181526020018280546107589061110b565b80156107a55780601f1061077a576101008083540402835291602001916107a5565b820191906000526020600020905b81548152906001019060200180831161078857829003601f168201915b50505050508152602001600282015481526020016003820160009054906101000a900473ffffffffffffffffffffffffffffffffffffffff1673ffffffffffffffffffffffffffffffffffffffff1673ffffffffffffffffffffffffffffffffffffffff1681526020016003820160149054906101000a900460ff161515151581525050815260200190600101906106ef565b505050509050919050565b60008054906101000a900473ffffffffffffffffffffffffffffffffffffffff1681565b6000600160003373ffffffffffffffffffffffffffffffffffffffff1673ffffffffffffffffffffffffffffffffffffffff16815260200190815260200160002080546108b39061110b565b9050036108f5576040517f08c379a00000000000000000000000000000000000000000000000000000000081526004016108ec90611188565b60405180910390fd5b6000600260003373ffffffffffffffffffffffffffffffffffffffff1673ffffffffffffffffffffffffffffffffffffffff16815260200190815260200160002080549050905060006040518060a0016040528083815260200185858080601f016020809104026020016040519081016040528093929190818152602001838380828437600081840152601f19601f8201169050808301925050505050505081526020014281526020013373ffffffffffffffffffffffffffffffffffffffff168152602001600015158152509050600260003373ffffffffffffffffffffffffffffffffffffffff1673ffffffffffffffffffffffffffffffffffffffff168152602001908152602001600020819080600181540180825580915050600190039060005260206000209060040201600090919091909150600082015181600001556020820151816001019081610a4c91906116a8565b506040820151816002015560608201518160030160006101000a81548173ffffffffffffffffffffffffffffffffffffffff021916908373ffffffffffffffffffffffffffffffffffffffff16021790555060808201518160030160146101000a81548160ff021916908315150217905550505050505050565b6060600260003373ffffffffffffffffffffffffffffffffffffffff1673ffffffffffffffffffffffffffffffffffffffff168152602001908152602001600020805480602002602001604051908101604052809291908181526020016000905b82821015610c7057838290600052602060002090600402016040518060a001604052908160008201548152602001600182018054610b649061110b565b80601f0160208091040260200160405190810160405280929190818152602001828054610b909061110b565b8015610bdd5780601f10610bb257610100808354040283529160200191610bdd565b820191906000526020600020905b815481529060010190602001808311610bc057829003601f168201915b50505050508152602001600282015481526020016003820160009054906101000a900473ffffffffffffffffffffffffffffffffffffffff1673ffffffffffffffffffffffffffffffffffffffff1673ffffffffffffffffffffffffffffffffffffffff1681526020016003820160149054906101000a900460ff16151515158152505081526020019060010190610b27565b50505050905090565b600080fd5b600080fd5b6000819050919050565b610c9681610c83565b8114610ca157600080fd5b50565b600081359050610cb381610c8d565b92915050565b600060208284031215610ccf57610cce610c79565b5b6000610cdd84828501610ca4565b91505092915050565b600073ffffffffffffffffffffffffffffffffffffffff82169050919050565b6000610d1182610ce6565b9050919050565b610d2181610d06565b8114610d2c57600080fd5b50565b600081359050610d3e81610d18565b92915050565b600060208284031215610d5a57610d59610c79565b5b6000610d6884828501610d2f565b91505092915050565b600081519050919050565b600082825260208201905092915050565b60005b83811015610dab578082015181840152602081019050610d90565b60008484015250505050565b6000601f19601f8301169050919050565b6000610dd382610d71565b610ddd8185610d7c565b9350610ded818560208601610d8d565b610df681610db7565b840191505092915050565b60006020820190508181036000830152610e1b8184610dc8565b905092915050565b600080fd5b600080fd5b600080fd5b60008083601f840112610e4857610e47610e23565b5b8235905067ffffffffffffffff811115610e6557610e64610e28565b5b602083019150836001820283011115610e8157610e80610e2d565b5b9250929050565b60008060208385031215610e9f57610e9e610c79565b5b600083013567ffffffffffffffff811115610ebd57610ebc610c7e565b5b610ec985828601610e32565b92509250509250929050565b600081519050919050565b600082825260208201905092915050565b6000819050602082019050919050565b610f0a81610c83565b82525050565b600082825260208201905092915050565b6000610f2c82610d71565b610f368185610f10565b9350610f46818560208601610d8d565b610f4f81610db7565b840191505092915050565b610f6381610d06565b82525050565b60008115159050919050565b610f7e81610f69565b82525050565b600060a083016000830151610f9c6000860182610f01565b5060208301518482036020860152610fb48282610f21565b9150506040830151610fc96040860182610f01565b506060830151610fdc6060860182610f5a565b506080830151610fef6080860182610f75565b508091505092915050565b60006110068383610f84565b905092915050565b6000602082019050919050565b600061102682610ed5565b6110308185610ee0565b93508360208202850161104285610ef1565b8060005b8581101561107e578484038952815161105f8582610ffa565b945061106a8361100e565b925060208a01995050600181019050611046565b50829750879550505050505092915050565b600060208201905081810360008301526110aa818461101b565b905092915050565b6110bb81610d06565b82525050565b60006020820190506110d660008301846110b2565b92915050565b7f4e487b7100000000000000000000000000000000000000000000000000000000600052602260045260246000fd5b6000600282049050600182168061112357607f821691505b602082108103611136576111356110dc565b5b50919050565b7f506c6561736520526567697374657220546f20436f6e74696e75650000000000600082015250565b6000611172601b83610d7c565b915061117d8261113c565b602082019050919050565b600060208201905081810360008301526111a181611165565b9050919050565b7f4e487b7100000000000000000000000000000000000000000000000000000000600052603260045260246000fd5b60008190508160005260206000209050919050565b600081546111f98161110b565b6112038186610d7c565b9450600182166000811461121e576001811461123457611267565b60ff198316865281151560200286019350611267565b61123d856111d7565b60005b8381101561125f57815481890152600182019150602081019050611240565b808801955050505b50505092915050565b6000602082019050818103600083015261128a81846111ec565b905092915050565b7f4e487b7100000000000000000000000000000000000000000000000000000000600052601160045260246000fd5b60006112cc82610c83565b91507fffffffffffffffffffffffffffffffffffffffffffffffffffffffffffffffff82036112fe576112fd611292565b5b600182019050919050565b7f4f6e6c7920466f722041646d696e000000000000000000000000000000000000600082015250565b600061133f600e83610d7c565b915061134a82611309565b602082019050919050565b6000602082019050818103600083015261136e81611332565b9050919050565b7f557365726e616d652073686f756c642062652061746c65617374206f66206c6560008201527f6e67746820350000000000000000000000000000000000000000000000000000602082015250565b60006113d1602683610d7c565b91506113dc82611375565b604082019050919050565b60006020820190508181036000830152611400816113c4565b9050919050565b600082905092915050565b7f4e487b7100000000000000000000000000000000000000000000000000000000600052604160045260246000fd5b60006020601f8301049050919050565b600082821b905092915050565b60006008830261148e7fffffffffffffffffffffffffffffffffffffffffffffffffffffffffffffffff82611451565b6114988683611451565b95508019841693508086168417925050509392505050565b6000819050919050565b60006114d56114d06114cb84610c83565b6114b0565b610c83565b9050919050565b6000819050919050565b6114ef836114ba565b6115036114fb826114dc565b84845461145e565b825550505050565b600090565b61151861150b565b6115238184846114e6565b505050565b5b818110156115475761153c600082611510565b600181019050611529565b5050565b601f82111561158c5761155d816111d7565b61156684611441565b81016020851015611575578190505b61158961158185611441565b830182611528565b50505b505050565b600082821c905092915050565b60006115af60001984600802611591565b1980831691505092915050565b60006115c8838361159e565b9150826002028217905092915050565b6115e28383611407565b67ffffffffffffffff8111156115fb576115fa611412565b5b611605825461110b565b61161082828561154b565b6000601f83116001811461163f576000841561162d578287013590505b61163785826115bc565b86555061169f565b601f19841661164d866111d7565b60005b8281101561167557848901358255600182019150602085019450602081019050611650565b86831015611692578489013561168e601f89168261159e565b8355505b6001600288020188555050505b50505050505050565b6116b182610d71565b67ffffffffffffffff8111156116ca576116c9611412565b5b6116d4825461110b565b6116df82828561154b565b600060209050601f8311600181146117125760008415611700578287015190505b61170a85826115bc565b865550611772565b601f198416611720866111d7565b60005b8281101561174857848901518255600182019150602085019450602081019050611723565b868310156117655784890151611761601f89168261159e565b8355505b6001600288020188555050505b50505050505056fea264697066735822122056807fe3f0efa0e11d5a83515debf366cdef49fbcd25e0578a6768d2a26edac364736f6c63430008130033",
  "linkReferences": {},
  "deployedLinkReferences": {}
}